S0160000485749443D30373030204147434F2053424C433B
S224005000C01000201D830008B1800008B3800008B5800008B7800008B980000800000000C2
S224005020000000000000000000000000BD800008BB80000800000000BF800008C180000853
S224005040C3800008C5800008C7800008C9800008CB800008CD800008CF800008D1800008BB
S224005060D3800008D5800008D7800008D9800008DB800008DD800008DF800008E18000081B
S224005080E3800008E5800008E780000867690008BB690008716A0008736A0008E980000887
S2240050A003810008058100080D81000801750008A37E00080F8100081781000819810008BA
S2240050C01B8100081D8100081F8100082181000823810008F57C0008557D0008B57D0008F6
S2240050E025810008498100084B8100080000000000B585B000200490002003900020029054
S224005100DFF848080190022000900FF2C56302220221032001F0B4F9DFF83408007800283C
S22400512001D0012000E000200A30DFF828180870DFF8240880210170DFF820080021016019
S224005140DFF81C0800210170DFF8180800210170DFF8140800210170002300220121032025
S22400516001F078FADFF8040800210170DFF8740C5FF0FF31016000F0FAFFDFF86C0C5FF094
S224005180A5314160DFF8D40C0021017005B000BD10B5DFF8580C006800280CD0DFF8500C39
S2240051A00068DFF8481C0968401A41F28931884201D301F08DF801F09BF8DFF8A00C0078FC
S2240051C000280ED0022842D018D3042869D04BD3062800F0A180C0F09E80072800F0498124
S2240051E04EE100F079F9DFF87407DFF8041C09680160DFF8680C0121017041E100F07FFA95
S224005200002814D000F067FB002810D0DFF8500CC078DFF844170870DFF8400C0221017057
S224005220DFF8400CDFF8C81B096801600EE0DFF8C00B0068DFF824170968401A42F211712F
S224005240884203D3DFF8140C0021017018E100F067F9DFF80807DFF8981B09680160DFF8BE
S224005260FC0B032101700BE100F0C4FDDFF8800B0068DFF8E8160968401AFB2810D3DFF8A9
S224005280DC06DFF86C1B09680160DFF8DC0B0078012801D1062000E00420DFF8C01B087072
S2240052A0EEE0DFF84C0B0068DFF8B0160968401AB0F5FA7F2ED9032001F0A2F9DFF89406D8
S2240052C00078C00250F00403DFF8A02B0121032001F0C0F9DFF8943BDFF8902B012103203A
S2240052E001F0B8F9DFF8800B01210170DFF8800B00210160DFF86406DFF8F41A0968016036
S224005300DFF8580B06210170DFF8DC0ADFF8441609780170B4E0B3E0DFF84C0B00780028E1
S2240053200CD0DFF8CC0A0068DFF8381B0968401A40F6B931884201D300F019FF00F05AFD75
S224005340DFF8300B007800280FD0DFF8A40A0068DFF8901A0968401AB0F5FA6F05D9DFF8BB
S224005360140B0021017001F08EFB002418E01421DFF8042B01FB04214118097BDFF8E02AC7
S22400538082185171401C1421DFF8EC2A01FB0421097B814201DB0628E9DB00F0E9FA641CA5
S2240053A00A2C51DA1420DFF8D01A00FB041000780028F4D0DFF8380A00681421DFF8B82AB0
S2240053C001FB04218968401A1421DFF8AC2A01FB042149688842E2D31420DFF89C1A00FB6D
S2240053E00410DFF80C1A09688160DFF8740A06210170DFF86C0AEF214170DFF8640ADFF82E
S224005400541509788170DFF8580ADFF84C150978C170DFF84C0ADFF840150978C17014204A
S224005420DFF8541A00FB0410007B401CDFF8301A08711420DFF8401A00FB04100078DFF8DF
S224005440201A487101209EE700F059F900280FD0DFF80C0A4078D92802D000F089FA07E093
S22400546000F0AAFE002803D0DFF8F0090721017006E000F0E3F8DFF8E40906210170FFE738
S22400548010BDDFF82C0D00210160DFF8F00990F8C60310F00F004004DFF8141D0860DFF8ED
S2240054A0B0040078002801D0012000E00020DFF8001D096851EA0040DFF8F41C0860DFF89B
S2240054C0F00C0068DFF8B419D1F8C01389B20843DFF8DC1C0860704780B5DFF88409FE21F7
S2240054E0C170DFF87C09FF218170DFF87409EA214170DFF86C0906210170DFF864090321AD
S2240055000171DFF85C0900214171DFF85409EE218171DFF84C090021C17100F08FF801BD1C
S22400552080B5DFF83C09DFF82C140978C170DFF83009FF218170DFF82809EE214170DFF88C
S224005540200906210170DFF8180908210171DFF8280D00F003F800F071F801BD10B504001B
S224005560002C6AD0FFF78DFFDFF8100D0460DFF80C0D0068C07950F08000DFF8001D096830
S224005580C8710220DFF8F41C0968C97960F30611DFF8E80C0068C171DFF8E00C0068C079DE
S2240055A010F0F000DFF8D41C0968C871DFF8CC0C0068807910F0010050F01200DFF8BC1C73
S2240055C009688871DFF8B40C006884214171DFF880030078002801D0012000E00220DFF841
S2240055E09C1C0968097911F0070151EAC000DFF88C1C09680871DFF8840C0068007910F046
S224005600F800DFF8781C096808716620DFF86C1C0968096860F35F51DFF8600C0068016062
S224005620DFF88C0B0068DFF8541C0968096860F31401DFF8480C0068016010BD80B5DFF831
S2240056402008C078C3490978884204D0DFF81008C078FE2852D1DFF8940C00210160DFF87A
S2240056608C0C0068DFF8F817097811F0070150EA8160DFF8781C0860DFF8700C0068DFF835
S224005680E017497850EA0140DFF8601C0860DFF85C0C0068DFF8C817897850EA0120DFF887
S2240056A04C1C0860DFF8440C0068DFF8B417C9780843DFF8381C0860DFF8300CDFF8A01724
S2240056C009794171DFF8240C0121017100200AE0C0B2DFF8181C4118C0B2DFF88427821888
S2240056E052798A71401CDFF878170979C0B28842EED3DFF8F81B032001F029F801BD80B58C
S224005700002098490978964A127891425DD0DFF8DC0B934909781422DFF8B03B02FB013156
S224005720142201F05DFA8E480078401C192190FBF1F201FB12008A4908708A480078884920
S2240057400978884201D3002000E0192085490978081883490978401A83490870DFF88C0B24
S2240057600068800E10F00700DFF8F4160870DFF87C0B0068000CDFF8E8164870DFF86C0B21
S2240057800068000ADFF8D8168870DFF8D406DFF85C1B0968C170DFF8C806DFF8501B49798B
S2240057A0017100200AE0C0B2DFF8B4164118C0B2DFF8382B821892794A71401CDFF8A01607
S2240057C00979C0B28842EED30120C0B202BD000010B400295CD063480078401C192290FB95
S2240057E0F2F302FB13005E4A1278904250D05D4800781422DFF8D43A02FB00300A79027130
S224005800584800781422DFF8C43A02FB00300A680260544800781422DFF8B03A02FB003027
S2240058204A7942714F4800781422DFF8A03A02FB00300A69026100200BE04A4A1278142394
S224005840DFF8884A03FB0242821843189B799371401C4A799042F0DB42480078401C1921F7
S22400586090FBF1F201FB12003E4908703D4800783B490978884201D3002000E0192039494D
S2240058800978081836490978401ADFF85C1B087010BC704738B50500002D01D1002019E0B5
S2240058A00024DFF8480BFFF759FE072000E0401E00280DD4DFF8341B415C425D914201D2D2
S2240058C0012405E0415DDFF8242B825C9142EED22000C0B232BD0020DFF8A019DFF89829BB
S2240058E00A60DFF8981909680968490D66292AD1DFF888190968C979C1F30211C9B2022957
S22400590021D1DFF8781909688979C9B24908C9B2092918D1DFF8641909684979842912D13C
S224005920DFF8581909680979C9B2C908C9B2012909D0DFF8481909680979C9B2C908C9B26B
S224005940022900D00120C0B270470000D9630008BA080020B6080020B7080020780800207A
S224005960B3080020B2080020B40800207008002010B50124DFF83C084079242800F08F81EF
S224005980622800F0888190280FD0932800F08A80992800F0CB809D2800F0ED809E2800F05F
S2240059A02B81F12800F0A08112E2DFF8080806210170DFF80008EF214170DFF8F807DFF84C
S2240059C0301A09788170DFF8EC07DFF8281A0978C170DFF8E00708210171DFF8D8079121B0
S2240059E04171DFF8D007DFF8101A096809788171DFF8C007DFF8041A09680978C171DFF8CF
S224005A00B407DFF8FC19096809780172DFF8A407DFF8F019096809784172DFF89807DFF821
S224005A20E819096809788172DFF88807DFF8DC1909680988C172DFF8D4090068008880B23E
S224005A40000ADFF870170873FFF7F8FDDFF8640706210171DFF85C0792214171DFF85407C7
S224005A60DFF8AC19096809788171DFF84807DFF8A41909680978C171DFF83807DFF8981925
S224005A80096809780172DFF82C07DFF89019096809784172DFF81C07DFF88419096809780D
S224005AA0817296E1DFF80C0706210170DFF80407EF214170DFF8FC06DFF8341909788170E3
S224005AC0DFF8F006DFF82C190978C170DFF8E40605210171DFF8DC0694214171C448006839
S224005AE04FF47A71B0FBF1F0DFF8C8168871C04800684FF47A71B0FBF1F0000ADFF8B41664
S224005B00C871BB4800684FF47A71B0FBF1F0000CDFF8A0160872B64800684FF47A71B0FBD0
S224005B20F1F0000EDFF88C16487252E1DFF8840606210170DFF87C06EF214170DFF87406A7
S224005B40DFF8AC1809788170DFF86806DFF8A4180978C170DFF85C0603210171DFF85406A9
S224005B609A214171DFF84C0609218171DFF844060021C1712DE1DFF83C0606210170DFF864
S224005B803406EF214170DFF82C06DFF8641809788170DFF82006DFF85C180978C170DFF866
S224005BA01406007903280AD1DFF80806C079C0B24008C0B2B149A1F8C60300F064FFDFF877
S224005BC0F40503210171DFF8EC059B214171DFF8E40500218171DFF84C080078002801D08C
S224005BE0012000E00020A549B1F8C61350EA4100DFF8C015C871ECE0DFF8B8058079DFF87F
S224005C00B415C97950EA0120DFF8A815097A50EA0140DFF8A015497A50EA01609749C1F804
S224005C20C00300F030FFDFF88C1506220A70DFF88415EF224A70DFF87C15DFF8B427127884
S224005C408A70DFF87015DFF8AC271278CA70DFF8641505220A71DFF85C159F224A71DFF8EE
S224005C605415864AD2F8C0238A718449D1F8C013090ADFF84025D1718049D1F8C013090CCA
S224005C80DFF8302511727D49D1F8C013090EDFF8242551729DE000F0F3F8040099E0DFF848
S224005CA0140506210170DFF80C05EF214170DFF80405DFF83C1709788170DFF8F804DFF85F
S224005CC034170978C170DFF8EC0403210171DFF8E40425214171DFF8DC0400218171DFF80D
S224005CE0D4040021C17174E0002000E0401CC0B20A2812DAC0B214215F4A01FB0021097846
S224005D0000290AD0C0B214215B4A01FB00210978DFF8A024D2799142E8D1DFF8981489799A
S224005D20002901D1002102E0DFF88814C979C0B21422514B02FB00321170C0B214214E4A78
S224005D4001FB0021DFF86C2492790A235A434A60C0B21421484A01FB002100228A60C0B267
S224005D601421454A01FB0021DFF84824127A4A73C0B21421404A01FB0021DFF83824527A64
S224005D808A73C0B214213C4A01FB0021DFF82424927ACA73C0B21421374A01FB0021DFF833
S224005DA01424D27A0A74C0B21421334A01FB0021DFF80024127B4A74C0B214212E4A01FB3A
S224005DC00020DFF8F0130979C91E0173002400E00024E4B2002C03D0DFF84C060721017068
S224005DE010BD00008408002000400020880800209408002080B51C480078002809D0DFF870
S224005E002C0600681A490968401A40F2DF31884200D222E01648DFF8141609680160DFF8CD
S224005E20940306210170DFF88C03EF214170DFF88403DFF8BC1509788170DFF87803DFF866
S224005E40B4150978C170DFF86C0301210171DFF86403A0214171FFF7F1FB01BDB5080020BA
S224005E604008002080080020B908002004F807007C080020B8080020F0050020340000203C
S224005E8080B50020DFF82C130979022905D0032924D0072900F0AA803FE1C649897900294C
S224005EA003D002290FD005D317E0DFF8841500220A7012E0DFF8781501220A70DFF87415D2
S224005EC000220A6009E0DFF8681502220A70DFF86815DFF868250A60FFE71EE1B548807959
S224005EE0032846D1B348C079002809D1DFF844050068DFF844150968401A00F010F973E056
S224005F00AC48C079012805D1DFF83405006800F006F969E0A748C079022806D1DFF8240577
S224005F20B0F8C40300F0FBF85EE0A248C079022190FBF1F202FB1102002A0DD09D48C079E3
S224005F40C01E022190FBF1F0DFF8F81411EBC000406800F0E4F847E09648C079C01E02217D
S224005F6090FBF1F0DFF8DC1451F8300000F0D7F83AE090488079042811D18E48C079002881
S224005F8004D100F09FFE00F0CAF82DE08948C079012829D100F09AFE00F0C1F824E08548AC
S224005FA08079052809D18348C07900281CD1DFF88404006800F0B3F816E07E48807906287E
S224005FC012D17C48C079002805D1DFF86C04006800F0A5F808E07748C079012804D1DFF8ED
S224005FE06004006800F09BF8012096E071498979032940F091806F49C9790229C0F28C80AA
S2240060006C48C079022812D16A48007A792801DB782001E06748007ADFF82814A1F8C403C3
S224006020DFF82004B0F8C40300F079F869E06148C079022190FBF1F202FB1102002A3CD08E
S2240060405C48C079C01E022190FBF1F0DFF8F41311EBC0004068FF2808D1DFF8E803B0F845
S224006060C403401CDFF8DC13A1F8C4035148C079C01E022190FBF1F0DFF8C81311EBC00025
S2240060804C49097A4B4A527A51EA0221494A927A51EA0241474AD27A51EA0261416045485E
S2240060A0C079C01E022190FBF1F0DFF8981311EBC000406800F033F823E03E48C079C01E94
S2240060C0022190FBF1F0DFF87C133A4A127A394B5B7A52EA0322374B9B7A52EA0342354B64
S2240060E0DB7A52EA036241F830203248C079C01E022190FBF1F0DFF84C1351F8300000F05D
S2240061000EF8DFF84403DFF8241309680160DFF83C03012101700120FFE7C0B202BD254927
S22400612006220A702349EF224A702249B04A12788A702049AF4A1278CA701E4907220A7167
S2240061401C4963224A711B491A4AD2798A711949C871010A174A1172010C164A5172000EBF
S224006160144988721348BA490978C172704780B5B84800210170AC4801210170B648AB49BA
S22400618009680160B1480078002804D000F07BFCAE4900220A70002006E01421AF4A01FB91
S2240061A0002100220A70401C0A28F6DB01BD0000740800204008002080B50020A8498979B4
S2240061C011F00E010C2955D1A648807800282ED1A348C07AA249097B50EA0120B0F5E06F5F
S2240061E01DD1A0489E49C9784170002000F048F88E4800682A2148439B49088098489A4958
S2240062000988C17296489849098889B2090A017394480121817093480021C17029E09148A5
S2240062208F49C97841700A2000F02AF821E08D48807800281DD08C480088C04300F5D44008
S2240062404D3080B28649097B854AD27A52EA0121884208D1082000F013F882480121C170DB
S224006260FFF7ECF905E00A2000F00AF87D480021C1700120C0B202BD4508002058080020E7
S224006280774906220A707649D8224A707449754A52788A707249574A1278CA7070490022E9
S2240062A04A716F4988716E480021C1716C48002101726B480021417269480621817268481A
S2240062C0FF21C1726648FF2101737047FC0300206648002101606448002101806148002106
S2240062E0817060480021C170704700001808002038B53D480078002803D04B48007804289B
S22400630000D168E05A48007814215A4A01FB00242068C0F30740EE2826D12078C0B2354935
S2240063200978884220D1FFF7EAF90500A01DFFF7B1FA002814D12F480078801CFE2805DA43
S2240063402C480078801C2B49087009E035480078002801D0012000E000200A3025490870AC
S22400636031480221017036E02068C0F30740EA280ED1A07900280BD1E079EE2808D1207A83
S224006380002805D1FFF7BBF9274902220A7022E02068C0F30740EF280FD1A079A0280CD109
S2240063A0FFF7ADF92178C9B2114A1278914212D131481E49096801600DE02068C0F307406C
S2240063C0D92808D1FFF79BF90400FFF7F5FE002801D0FFF733F931BD2248C078002802D0C2
S2240063E02648012101707047B408002050080020B7080020B60800201C0000202000002053
S22400640024000020280000202C00002030000020080000200C000020100000201400002097
S22400642018000020BA080020B508002094080020BC0800209C080020A0080020400D0300E4
S224006440A40800203400002084080020B808002070080020B908002078080020F00500205D
S2240064604008002000400020B008002088080020B3080020FC03002080080020BB08002042
S22400648070B50400080015001E00DFF85015096831F4C041DFF844251160E4B2002C04D079
S2240064A0032C1BD0062C32D04AE0DFF83015096851F4C041DFF824251160DFF8241509687A
S2240064C031F47F21DFF818251160DFF81415096851F43421DFF80825116031E0DFF8FC14F5
S2240064E0096851F48041DFF8F4241160DFF8F4140968090A0902DFF8EC241160DFF8E4142B
S224006500096851F0B401DFF8DC24116018E0DFF8CC14096851F4C041DFF8C0241160DFF85E
S224006520C8140968090A0902DFF8BC241160DFF8B814096851F0B401DFF8AC241160FFE7BB
S224006540DFF8A814096851F00071DFF8A0241160DFF89C140968DFF89C241140DFF8902409
S2240065601160DFF88C14096851F04001DFF880241160DFF87C14096851F00101DFF87024C9
S2240065801160DFF874140968C907FAD5C0B200F081F9DFF868044661DFF860040599816195
S2240065A0DFF858040799C161DFF8500400210170DFF8480400214160DFF834040068400880
S2240065C04000DFF82C140860DFF82C040068C007FAD4DFF82C04006850F00300DFF8201436
S2240065E008602A00D2B22900C9B2142000F01CFC04990A00D2B2C9B2132000F015FC70BD99
S224006600DFF80004006850F00100DFF8F8130860DFF8E80300210170002010E0DFF8DC137D
S22400662011EB80010022CA60DFF8D01311EB800100224A60DFF8D01300220A60401C0228BD
S224006640ECDBDFF8C003006840084000DFF8B4130860704730B4DFF8AC03006850F0010014
S224006660DFF8A0432060DFF8940301240470002000E0401C022860DADFF88C432468C440DE
S224006680E407F6D4C9B2002902D07FF0604401E040F2FF34DFF8645315EB80052340EB60B0
S2240066A0C9B2002902D07FF0604101E040F2FF31DFF8483313EB800311405960DFF84C13F9
S2240066C0096801228240120112099143DFF83C231160DFF83C13096801228240120112090C
S2240066E09143DFF82C231160DFF82813096801228240120112091143DFF818231160DFF8E6
S224006700FC1211EB8001C968DFF80C2342F83010DFF8E81211EB80014968DFF8002342F805
S2240067203010DFF8E4120968012212FA00F0000100090843DFF8D0120860DFF8C802006838
S22400674040084000DFF8BC12086030BC704730B4002957D00020B24A126812F04072032A51
S22400676050D2AF48006810F040701422AE4B02FB003002680023136042680023136082685D
S22400678000231360C268002313600A79002A04D00A68D20052F0040201E00A68520503687C
S2240067A01B681A4303681A60426812684B7913F00F031A4343681A6000220CE0C3681B68D4
S2240067C05418A47915002D1FEDB2ED00AC402343C4682360521C4B799A420DD2042AEDD263
S2240067E083681B685418A4791500EDB2ED00AC40234384682360EDE70168096851F001014A
S2240068000068016030BC7047002901D1002040E00020844A126812F0030F39D08348006814
S224006820824A1268D2080A60804A136801220A717F4A126812F00F024A717D4A1268120C76
S22400684012040A61002209E07A48006813001B1FDBB2DB00D84053189871521C4879824249
S2240068600AD2042AF0D2744800681300DBB2DB00D84053189871F0E76A48006850F02000CB
S2240068806849086001206D490968491C6B4A1160C0B2704770B500220023C0B2002805D005
S2240068A0022809D005D3032809D00AE0644A654B07E0654A654B04E0634A654B01E0624A98
S2240068C0644B10001900644A644B00F0DDFA0022634B00F00DFC04000D002000290000F0A4
S2240068E091FC0600300000F0ADFC02000B002000290000F0B5FC01225A4B00F071FD00D842
S224006900761C59480068800A80025749086056480068B105890D0843534908605248006820
S22400692030F47020504908604F48006850F400204D4908604C48006830F4E0004A49086041
S2240069404948006850F4A000474908604648006830F04070444908604348006850F04070BF
S2240069604149086070BD80B52D480068400106D52B48006830F080602949086014E02848AC
S2240069800068000106D52648006830F000602449086009E022480068C00005D5204800685E
S2240069A030F080501E49086014488069002803D0002012498969884701BD80B52B4903200D
S2240069C0FFF722FF002808D00C484069002804D026490020094A5269904701BD040001402B
S2240069E004080140040C0140001401401C1002400064004070FEFFFF04640040F80700205A
S224006A0014640040006600401C66004014660040046600400C66004040660040446600406B
S224006A20086400400C64004048820008B0650040B4650040BC650040B865004098080020F7
S224006A40F168E388B5F8A43E8DEDB5A0F7C6A03EF7C6903EF7C6803EC2C298567FD35D3E0F
S224006A600000F0BF0000E03F1C6400402C080020704770474F480068C008C00050F00200F8
S224006A804C490860704738B5002500F059F84A480068C007FBD400242BE0484800684849A2
S224006AA0096831F8141020F8141043480068400719D54148006850F035003F4908604148D0
S224006AC00068400840003F4908603F4800F04FF8002400F035F8394800683949096831F8CD
S224006AE0141020F8141034480068C007FBD40125641CB4F5F27FD0D300F02CF82800C0B2A6
S224006B0032BD002008E02E4909682C4A126832F8102021F81020401CB0F5F27FF3D32B4853
S224006B20B0F8C403792803DB28487821A0F8C41370472748274901602548274901607047FE
S224006B4080B5FFF7F6FF1F48006850F001001D49086001BD1B480068C008C0001949086057
S224006B601848006850F0800016490860704710B5040011480068C007FBD4FFF7DAFF1148C2
S224006B80006850F002000F490860144804600D48006830F040000B4908600A48006850F0F3
S224006BA040000849086004480068C007FBD4FFF7D1FF10BD002002400C2002400400002006
S224006BC0000000201020024000FC0108340000200420024023016745AB89EFCD1420024029
S224006BE0103A07D330B4B1E83810103AA0E83810F9D230BC530724BFB1E80810A0E8081048
S224006C0044BF51F8043B40F8043BD20724BF31F8022B20F8022B44BF0B7803707047083A24
S224006C2007D3B1E80810083A40F8043B40F804CBF7D25307E4E710B450F8041B81B102684F
S224006C401218001D50F8043BDC0744BFA9F10104E31852F8044B43F8044B091FF9D1EBE7FA
S224006C6010BC704780B500F0D3FB01BD80B500F004FC6749086067480078022813D16448BD
S224006C8000686549096888420DDA63486049096801606248006860490968401A00F01CF807
S224006CA05F4908600DE05B480078012809D15B48006857490968884203DA58485449096843
S224006CC0016001BD80B500F0D8FB02BD80B500F0D4FB00F001F802BD10B502000020002A2C
S224006CE043D0002300E05B1C1900C9B24D4CB4F8C44389B2A14238D24A49B1F8C413DBB25A
S224006D005C1CA14214DBDBB2464911EBC301496891420DDADBB2434911EBC301C9688A4207
S224006D2006DA591CC9B21800C0B200F01FF81CE0DBB23C49B1F8C413491E8B4210D1DBB2BD
S224006D40002B0DD0DBB2374911EBC3014968914206DA1900C9B2581EC0B200F007F804E0A6
S224006D603049B1F8C4130229BDDA10BD2DE9F04D06000F009046FFB22A4850F83700F6B2FE
S224006D80284951F83610401A00F052FA04000D00FFB2244810EBC7004068F6B2214911EBB2
S224006DA0C6014968401A00F043FA02000B002000290000F069F804000D00F6B2194850F8C6
S224006DC0360000F035FA82468B46F6B2154810EBC600406800F02CFA22002B0000F0D2FB32
S224006DE002000B005046594600F03AFA06000F00404600F01DFA22002B0000F0C3FB320059
S224006E003B0000F075F900F0E7F9BDE8F08D0000A8080020BC080020A00800209C080020A2
S224006E20A40800203400002070B4C0B28308FF24C0B20425B0FBF5F606FB150614FA06F593
S224006E400F4C54F82340AC43C9B2D2B212EB0111C0B20422B0FBF2F505FB1205A9400C43AD
S224006E60074941F82340C0B243090649012210F01F0012FA00F041F8230070BC7047000097
S224006E8000E400E000E100E0F0B540F2FF7581EA030C0CF0004C15EA11541DBF15EA1357B2
S224006EA0AC42AF42E5E0BC41C1F31301C3F31303801A994143F4801304D2641E4000494138
S224006EC080185941C90241EA5051B1FBF3F603FB1611A2FB0675D7EBC020A94102D2761E1E
S224006EE080185941C90241EA5051B1FBF3FE03FB1E11A2FB0E75D7EBC020A94103D2AEF1DA
S224006F00010E80185941890241EA9051760546EA8E2EB1FBF3F603FB1611A2FB0675D7EB99
S224006F208020A94102D2761E80185941C90241EA50514EEA060EB1FBF3F603FB1611A2FBEE
S224006F400675D7EBC020A94102D2761E80185941C90241EA5051B1FBF3F703FB1711A2FB9B
S224006F600735D3EBC020A94167F100070CBF004247F0010766F3D5274FEA1E31B80814F5F7
S224006F80806412DDBD0775F1004250EB0E5051EB045111F5801F5CBF41EA0C01F0BD4CF0A2
S224006FA07F6141F0E0410020F0BDBD076D0840EA0E5041F48011D4F10104B4F120060ADACD
S224006FC0C4F120060200E04001FA06F3E1401843B24015430EE0342C13DCC6F1200445EAAE
S224006FE040056D0820FA06F2154321FA06F0A1400D43002175F1004250F1000051EB0C01D3
S224007000F0BD00205FEA0C01F0BDCFB992185B41B3FA83F704BFB2FA82F6BF190B3FB7F1F5
S22400702020062FBF02FA06F3BB40C7F1200622FA06F638BF3343BA401CB1E419641E33E784
S2240070407F4231F00041B1FA81F404BFB0FA80F6A4190B3CB4F120062FBF00FA06F1A14076
S224007060C4F1200620FA06F638BF3143A0403C1B1AE7AC421ABF05EA1357AF4212E050EA3A
S22400708041061CBF52EA4306BFE750EA4107304661461CBF41EA0551F0BD52EA430C08BFA4
S2240070A0C143F0BD00204FF4001616EB410F98BF16EB430F08BF16EB410F24BFC14305E0C2
S2240070C016EB430F0CBF61464CEA0551F0BD50F8041B61B150F8042BD30744BFA9F1010342
S2240070E09A18002342F8043B091FFAD1EFE7704770B44FF0004591EA030C44BF6B4000F0ED
S224007100B9B800BF841A71EB030603D2001BB141121973414FF4001C1CEB410F34BF7CEB66
S224007120430443E00C0DA4EB1356352E50DC45EAC323DB0A45EAC121C912B6F120050DDDA4
S22400714063FA05F6EB4086EA0305124218BF45F00105C01851F100010CD213E062FA06F586
S224007160F2405540F3415A40B340F3405A408018594107D349085FEA30005FEA350528BF75
S22400718045F0010501F58011420875F1004250F1000041EB045170BC4FF4001C1CEB410F92
S2240071A038BF70470020090D090570471CEB410F10D252EA43060BD0BCEB410F05D80C0D9B
S2240071C0AB43661E342EB5DD02E0AB438018594170BC704770BC7047F446400D40EAC120EA
S2240071E0490006D200F014F8004248BF6FF00040604700F00DF84FF0004188428CBF084606
S22400720040426047400D40EAC120490080F00D8040F00040490DA1F58061491C05D4D1F165
S2240072201F0154BFC840C01770474FF000007047010040F10980F446404200F005F851F0E5
S22400724000416047010000BF09D0B0FA80F18840C91CC1F58461090501EBD021400570475E
S22400726070B44FF0004591EA030F44BF6B40FFF749BF00BF841A71EB030604D26E40001BC7
S224007280B141121973414FF4001C1CEB410F34BF7CEB430684E00C0DA4EB1356362E7DDC8D
S2240072A0012E43DC45EAC32343EA525312BFD20292025B08240545EAC12141EA5051D2EB35
S2240072C0C020994125D407D1B0FA80F610FA06F164D00020203608E0B1FA81F6B140C6F1A1
S2240072E0200220FA02F21143B0404FEAF474B4EB465434F001064FEA74040AD8D6F500169C
S224007300760D04F00044F04061FA06F25040F1404840C00A40EA415021F0004128BF5FEADA
S224007320500550F1000044EBD12137E045EAC323DB0A45EAC121C90AB6F120050EDD42EAB9
S2240073400242120CC5F1200603FA06F6EB4042EA06056D42984161F100010DE062FA06F570
S224007360F240554063FA06FC82EA0C02F3405A406D42904161EB030111F4801F05D1641ECF
S224007380620502D06D004041494121F48011430875F1004350F1000041EB045170BC7047F8
S2240073A01CEB410F15D223F0004352EA43060BD04FEA4C0CBCEB410F04D80C0D661E342E71
S2240073C0B7DDEBE7801A994150EA410608BF0021E4E708BF1CEB430F28BF6FF00001DDE76F
S2240073E04FF4001C1CEB410F94BF1CEB430F09E041EA030C50EA4C0C52EA0C0C03D28B427B
S22400740008BF8242704714BF994290427047000080B54D48006850F040004B4908604B48AD
S224007420006850F400604949086049484FF4745101604848006850F48050464908604648B6
S224007440006850F01000444908604448006830F44070424908604148006850F001003F4905
S22400746008603F48002101603E4800210160002200211B20FFF7D8FC01BD38B53A480022F7
S2240074800023C0E9002300240DE0384830F81400FFF7D8FE344DD5E90023FFF729FE324A64
S2240074A0C2E90001641C2F4800688442EDDB2D480068FFF7BDFE02000B002B4CD4E900015E
S2240074C0FFF7E2FC284AC2E90001274AD2E90001FFF782FE002802D10022254B02E0224839
S2240074E0D0E9002300205FF07F5100F04BF802000B0000201F49FFF7C7FCFFF783FE32BD85
S2240075001748006819491C4A126821F8102014480068401C642190FBF1F201FB120010499A
S224007520086010480068642804DA0E480068401C0C4908601148002101601148006830F021
S22400754010000F490860704704000140181002401C2C0140202C01400C2C0140002C0140F4
S2240075608C0800209008002060080020B80600200000F03F882A9141402C0140242C014043
S224007580102C0140B0B581EA030C0CF0004C40F2FF7515EA11541DBF15EA1357AC42AF4214
S2240075A039E0E41923EA455343F48013C90241F0004141EA505EC7021100A7FB0202002883
S2240075C04FF00000EEFB01204FF00001E3FB072118BF42F00102401800214941E3FB0E011B
S2240075E0A4F580640F0302D252004041494154F101046CDD470872F1004250F1000051EBC2
S2240076000451A1F580115CBF41EA0C01B0BD4CEA05510020B0BD05EA1357AC4214BFAF4205
S22400762041E050EA410E1CBF52EA430E02E061460020B0BD24423C441BD15FEA070EF6D027
S224007640090302BF01460020AEF1140EB1FA81F7AEEB070401FA07FE0C37C7F1200100FA53
S22400766007F7C8404EEA000E23EA455343F48013A2E733F00043B3FA83F704BFB2FA82FE45
S22400768077440B3FE41BB7F1200E2FBF02FA0EF3BB40C7F1200E22FA0EFE38BF43EA0E03E2
S2240076A0BA40641C82E750EA410E14BF52EA430E6FF000014FF4001717EB430F8ABF194643
S2240076C017EB410FB5E74CEA05510020B0BDD4F10104B4F120070FDAC4F12007520828BF02
S2240076E042F0010210FA07F501FA07F7E1BF2A43E0403843E1400FE0352C98DCC7F12004E8
S22400770052EA400220FA07F218BF42F0010231FA07F0A1400A43002172F1004250F1000070
S22400772051EB0C01B0BD000071B581B00C0001260F259DF80400002806D0022816D00CD34A
S224007740042825D01BD32CE0042000F078FA002802D1042000F07BFA24E0082000F06FFA7A
S224007760002802D1082000F072FA1BE0102000F066FA002802D1102000F069FA12E020205A
S22400778000F05DFA002802D1202000F060FA09E0402000F054FA002802D1402000F057FAF5
S2240077A000E00026F6B2002E00F01F819DF80500082880F28B809DF804001C21DFF8C4227E
S2240077C001FB0020006800689DF8051089008D40A843E4B2022C13D004D3042C44D02AD30E
S2240077E0052C5AD0042212FA01F108439DF804101C22DFF8903202FB013109680860F4E05E
S224007800082212FA01F108439DF804101C22DFF8743202FB0131096808609DF804001C21AE
S224007820DFF8602201FB0020006901219DF8052091400160D9E0082212FA01F108439DF896
S22400784004101C228F4B02FB0131096808609DF804001C218B4A01FB0020406901219DF8C8
S224007860052091400160C0E0022212FA01F108439DF804101C22834B02FB013109680860E2
S2240078809DF804001C217F4A01FB0020406901219DF8052091400160A7E0062212FA01F1C4
S2240078A008439DF804101C22764B02FB0131096808609DF804001C21724A01FB0020406971
S2240078C001219DF80520914001608EE09DF805000838082880F088809DF804001C21694A1C
S2240078E001FB0020406800689DF80510083989008D40A843E4B2022C12D004D3042C41D06D
S22400790027D3052C57D0042212FA01F108439DF804101C225B4B02FB01314968086064E088
S224007920082212FA01F108439DF804101C22554B02FB0131496808609DF804001C21514A8F
S22400794001FB0020006901219DF80520914001604BE0082212FA01F108439DF804101C220A
S224007960484B02FB0131496808609DF804001C21444A01FB0020406901219DF80520914051
S224007980016032E0022212FA01F108439DF804101C223C4B02FB0131496808609DF80400B3
S2240079A01C21384A01FB0020406901219DF805209140016019E0062212FA01F108439DF831
S2240079C004101C222F4B02FB0131496808609DF804001C212B4A01FB0020406901219DF8C7
S2240079E005209140016000E0002673BD01B49DF80000052829DA9DF80100102825DA9DF819
S224007A0000001C211F4A01FB0020C06800689DF80110C840C0070CD59DF800001C21194A84
S224007A2001FB0020406901219DF80120914001600BE09DF800001C21124A01FB00200069D4
S224007A4001219DF801209140016001B0704701B400209DF80010052911DA9DF8011010293D
S224007A600DDA9DF800101C22064B02FB0131896809689DF80120D140C90700D50120C0B256
S224007A8001B070474C81000810B4C0B201280ED004D3032829D01BD3042843D0DFF84432F2
S224007AA01B6833F44033DFF83C42236056E0DFF834321B6833F44033DFF828422360DFF8A1
S224007AC024321B6853F44033DFF81842236045E0844B1B6833F44033824C2360814B1B68A9
S224007AE053F480337F4C236038E07E4B1B6833F440337C4C23607B4B1B6853F44033794C28
S224007B002360794B1B6853F48023774C2360764B1B6853F48033744C2360734B1B689B0306
S224007B20FBD51BE06F4B1B6833F440336D4C23606C4B1B6853F482336A4C23606A4B1B68BB
S224007B4053F48023684C2360674B1B6853F48033654C2360644B1B689B03FBD5022901D2FE
S224007B60022102E0112900D31021891E89045D4B1B6833F470135B4C23605A4B1B68194306
S224007B80584B1960D2B2012A11D0022A2CD055480068800880005349086052485149096856
S224007BA001605048006810F00C0FFAD145E04D480068800880004B4908604A48006850F019
S224007BC00100484908604748006810F00C000428F9D14548006840084000434908604248B2
S224007BE000688007FBD428E03F49096851F080713D4A11603C4909688901FBD53949096854
S224007C0089088900374A11603649096851F00201344A11603349096811F00C010829F9D13A
S224007C20C0B2002809D13048006830F480302E4908602D4800688003FBD410BC70472B4912
S224007C400968014201D0012000E000207047274909680143254A11602549096831EA0000C3
S224007C60234908607047C0B2002805D002281DD00FD3032827D033E01A48006830F0F000FD
S224007C80184A10601748006850EA01101549086026E01448006830F4E060124A10601148E2
S224007CA0006850EA01200F49086019E00D48006830F460500B4A10600A48006850EAC12018
S224007CC0084908600CE00748006830F44040054A10600448006850EA813002490860FFE7A8
S224007CE0704700000410024000100240181002400C10024080B54948006880060FD54C482C
S224007D00006880060BD544488068002807D046480168C9B289B201203F4A926890473F486E
S224007D200068000615D542480068000611D540480068400605D53948006830F080003749EF
S224007D4008603548C068002803D001203249C968884701BD80B53248006880060FD53548BE
S224007D60006880060BD52C480069002807D02F480168C9B289B20220274A12699047284869
S224007D800068000615D52B480068000611D529480068400605D52248006830F080002049EB
S224007DA008601D484069002803D002201A494969884701BD80B51B48006880060FD51E48B9
S224007DC0006880060BD514488069002807D017480168C9B289B203200F4A92699047114867
S224007DE00068000615D514480068000611D512480068400605D50B48006830F080000949E7
S224007E0008600548C069002803D003200249C969884701BD00000000800700200C3801402B
S224007E200C4400400C480040043801400444004000380140004400400048004080B500F06A
S224007E406FF82E48006850F001002C4908602C48472101605FF080401421016029484FF424
S224007E607A71016028484FF47A710160274800684FF6FE7108402549086025480121016019
S224007E80012201211C20FEF7CFFF5FF08040006850F001005FF0804108601E480021016081
S224007EA001BD1C480068401C1A4908601A480068401C19490860154800684FF6FE7108405B
S224007EC012490860154801210170124800680521B0FBF1F201FB1200002802D10F480121F2
S224007EE041700C480068FA21B0FBF1F201FB1200002802D109480121417170471C10024014
S224007F0028000040240000402C000040100000400C000040AC080020940800206808002068
S224007F2080B500210020FFF79EFE04210120FFF79AFE00210220FFF796FE02210320FFF757
S224007F4092FE022209210320FFF79EFD01BD70477047000080B5284828490160FEF78AFD6B
S224007F60FFF76CFF264800210160FEF7CAFD254800680421FFF7D8FB022000F051F8224867
S224007F8000680121FFF7D0FB20480068FFF75FFD1F490870FDF7ACF8FEF764FE1D480078C3
S224007FA0002806D0FDF7F4F8FEF760FE1948002101701848407800280AD01748007800287F
S224007FC003D05FF0006000F00FF8124800214170104840790028E1D010480068FFF706FD54
S224007FE00C4800214171D9E703490860D0F800D0D0F804F07047000008ED00E000500008A9
S22400800094080020288300082C83000830830008BA08002068080020BB0800203483000866
S22400802010B504000120FFF70AFE002802D10120FFF70DFEE4B2002C05D0022C1BD00DD3A6
S224008040032C25D031E01948006830F0E06017490860164815490968016026E0134800689E
S22400806030F0E060114908601048006850F080700E49086019E00D48006830F0E0600B49C0
S22400808008600A48006850F00070084908600CE00648006830F0E0600449086003480068E6
S2240080A050F0806001490860FFE710BD040001407047FEE7FEE7FEE7FEE770477047704781
S2240080C070477047704770477047704770477047704770477047704770477047704770472B
S2240080E0704770477047704710B41648006815490968144A1268134B1B68124C246810BCD7
S2240081007047704780B5FFF723FF01BD704780B5FFF71DFF01BD7047704770477047704792
S2240081207047704730B40748006806490968054A1268044B1B68034C2468024D2D6830BC2B
S2240081407047000014040140704770470008014004080140080801400C0801401008014007
S2240081601408014018080140000C0140040C0140080C01400C0C0140100C0140140C014032
S224008180180C01400010014004100140081001400C100140101001401410014018100140EA
S2240081A00014014004140140081401400C14014010140140141401401814014000180140BA
S2240081C004180140081801400C18014010180140141801401818014030BF704720BF7047F4
S2240081E040BF7047BFF36F8F7047BFF34F8F7047BFF35F8F704701DF7047EFF314807047FB
S22400820080F31488BFF36F8F7047EFF30980704780F309887047EFF30880704780F30888E2
S224008220704772B6704762B6704771B6704761B6704780F311887047EFF31280704740BA40
S224008240704700BA704700008065004084650040886500408C65004000000004906500400C
S22400826094650040986500409C65004000000008A0650040A4650040A8650040AC6500400E
S2240082800000001010B5074979441831064C7C44163404E00A68081D511888470146A14275
S2240082A0F8D110BD080000003000000023EEFFFF08000000004000208C080000340000208C
S2240082C00000000073E9FFFF340000006C000000000000200000000000F00BF8002801D093
S2240082E0FFF7D0FF0020C046C046FFF733FE00F002F80120704700F001B80000074638462B
S22400830000F002F8FBE7000080B5C046C046024A11001820ABBEFBE726000200C046C04637
S224008320C046C046FFF7D8FF000F00000105000001050000000F00003400002000FC0108DC
S224008340FB4F0008FC4F0008FD4F0008FE4F0008FF4F0008F9FB0108FAFB0108FBFB01087A
S210008360FCFB0108FDFB0108FEFB010809
S21C01FBE8FF5831313033332D7878787800454E31020014091909FC1B87
S804000000FB
